:020000040001F9
:1090000078430020C1930100EB930100ED93010030
:10901000EF930100F1930100F393010000000000C1
:10902000000000000000000000000000F5930100B7
:10903000F793010000000000F9930100FB93010089
:1090400005970100FD9301002D9B01001D9B010070
:10905000FD93010000000000A1950100FD930100B7
:10906000FD930100FD930100FD930100FD930100BC
:10907000FD930100FD930100FD930100FD930100AC
:10908000FD930100A9970100FD930100FD930100EC
:10909000FD930100FD93010019980100FD9301006B
:1090A000FD930100FD93010000000000000000009E
:1090B000FD930100FD93010000000000000000008E
:1090C00000000000000000000000000000000000A0
:1090D0000000000000000000000000000000000090
:1090E0000000000000000000000000000000000080
:1090F0000000000000000000000000000000000070
:10910000000000000000000000000000000000005F
:10911000000000000000000000000000000000004F
:10912000000000000000000000000000000000003F
:10913000000000000000000000000000000000002F
:10914000000000000000000000000000000000001F
:10915000000000000000000000000000000000000F
:1091600000000000000000000000000000000000FF
:1091700000000000000000000000000000000000EF
:1091800000000000000000000000000000000000DF
:1091900000000000000000000000000000000000CF
:1091A00000000000000000000000000000000000BF
:1091B00000000000000000000000000000000000AF
:1091C000000000000000000000000000000000009F
:1091D000000000000000000000000000000000008F
:1091E000000000000000000000000000000000007F
:1091F000000000000000000000000000000000006F
:10920000DFF80CD000F08EF900480047DDC5010002
:109210007843002030B450E8012F93B2C48923442E
:109220008489A34228BF1B1B0489A34202BFBFF34A
:109230002F8F002007E0C3EA020340E80134002C2E
:10924000E9D14FF001000A6030BC704750E8012FAF
:10925000C2EA024240E801210029F7D1704730B448
:1092600050E8022F1FFAA2F3C488A34202BFBFF343
:109270002F8F00200DE0C48923448489A34228BF96
:109280001B1BC2EA034340E80234002CE8D14FF034
:1092900001000A6030BC704750E8022FC2EA224247
:1092A00040E802210029F7D17047034653E8022F16
:1092B000D988B2EB324F4FF0000017BF92B241EAAB
:1092C000014142EA014104E05A68B2EB324F08BF63
:1092D000012043E80212002AE8D1704730B4044666
:1092E00054E8000F0D4644E80053002BF8D11560F8
:1092F00030BC704730B4044654E8000F40EA010522
:1093000044E80053002BF7D1156030BC704730B4EF
:10931000044654E8000F00EA010544E80053002B1E
:10932000F7D1156030BC704730B4044654E8000FE4
:1093300080EA010544E80053002BF7D1156030BCEA
:10934000704730B4044654E8000F00EB010544E8D0
:109350000053002BF7D1156030BC704730B4044681
:1093600054E8000FA0EB010544E80053002BF7D1AF
:10937000156030BC704770B404464FF0000054E8EC
:10938000006F0D68AE4207BF44E80023012044E8A7
:1093900000630E60002B1CBF0020F0E770BC70471C
:1093A00030B4044654E8000F88422CBF451A0546E5
:1093B00044E80053002BF5D1156030BC7047000025
:1093C0000F4800680F4909680A280AD1002908D106
:1093D0000D4802686FF070031A404FF040031A43C3
:1093E00002600A4880470A480047FEE7FEE7FEE7BA
:1093F000FEE7FEE7FEE7FEE7FEE7FEE7FEE700002A
:109400003001001034010010E40E00401D980100EE
:10941000019201002DE9F05F0546002092469B462F
:1094200088460646814640241BE02846414647467A
:10943000224600F067F853465A46C01A914110D3AD
:1094400011461846224600F016F82D1A67EB01085F
:109450004F4622460120002100F00DF817EB0009CD
:109460004E41201EA4F10104DFDC484631462A4665
:109470004346BDE8F09F202A04DB203A00FA02F1BF
:10948000002070479140C2F1200320FA03F31943F2
:1094900090407047004870479C07020040EA010373
:1094A0009B0703D009E008C9121F08C0042AFAD29A
:1094B00003E011F8013B00F8013B521EF9D270475E
:1094C000D2B201E000F8012B491EFBD27047002206
:1094D000F6E710B513460A4604461946FFF7F0FFB3
:1094E000204610BD421C10F8011B0029FBD1801A38
:1094F0007047034611F8012B00F8012B002AF9D11F
:1095000018467047202A04DB203A21FA02F0002195
:10951000704721FA02F3D040C2F120029140084383
:1095200019467047064C074D06E0E06840F001031D
:1095300094E8070098471034AC42F6D3FFF764FE76
:109540000C0F02002C0F020070B58C1810F8015B94
:1095500015F0070301D110F8013B2A1106D110F8CC
:10956000012B03E010F8016B01F8016B5B1EF9D1D0
:109570002B0705D40023521E0DD401F8013BFAE756
:1095800010F8013BCB1A921C03E013F8015B01F8C1
:10959000015B521EF9D5A142D8D3002070BD000056
:1095A0002DE9F04700268AB0DFF85091B0464FF41D
:1095B0008075012437460696284603F0BDFE38B173
:1095C000D9F80403204203D0284603F0ABFE26431B
:1095D0002D1D64007F1CADB2082FEDD34FF4BE7477
:1095E000204603F0A9FE48B1204603F09BFE46F05A
:1095F000004606AA0121002003F080FE404D16F02F
:10960000FF0F15D00127002437420DD009EB84014C
:10961000D1F81005D1F81015C0F3042055F8242016
:10962000C1F3014102B190477F00641C082CEBD3C9
:10963000002E5FDA4FF0FF30CDF8108054E028198B
:1096400010F8507F90F9000027F0C008401C3BD074
:1096500007A9404603F0BAFA10B34FEA97194046FB
:1096600002F08CF955F820701FB1B9F1030F03D047
:1096700006E0B9F1030F27D104A9404603F0AEFA82
:109680004FF0A04101EB8800D0F8000706A9C0F315
:10969000014A404603F09AFA18B1BAF1020F03D01A
:1096A00012E0BAF1030F0FD1B9F1030F08D1BAF1EB
:1096B000020F1DD00221404603F0F2FD761CF6B2E7
:1096C00017B149464046B847641C042CB7D3002E56
:1096D00010D06A460121002003F010FE0699009880
:1096E000884207D006900498002634460790A6E7E3
:1096F0000321E0E70AB0BDE8F08700000060004009
:10970000782900202DE9F0414FF48076304603F0AF
:109710006FFB234CB50560B1304603F070FB0120B0
:10972000C5F80803607920B9012060712168002024
:1097300088474FF48276304603F05AFB40B13046FA
:1097400003F05DFB0220C5F808032168012088476B
:109750004FF48876304603F04BFB40B1304603F0BF
:109760004EFB1020C5F808032168022088474FF4FB
:109770008677384603F03CFB00280ED009480026C7
:109780000660384603F03BFB0820C5F80803A671C5
:109790002168BDE8F04103200847BDE8F0810000E2
:1097A0002C230020340C004002490248091F09689C
:1097B00000680847A423002000F0BEB970B50E462B
:1097C000144900EB400001EBC0051446E86A183567
:1097D00020B101280FD0022805D113E0284600F05F
:1097E000DFF9A04201D2002411E02246314628468A
:1097F00000F00EFA0BE0284600F0D2F9A042F4D2B5
:109800000446F2E73146284600F0D5F904462046E2
:1098100070BD0000EC30002004F02ABB2DE9F047B9
:10982000AC4F4FF001093E1D3978351D4FF0805483
:1098300006290BD13078000708D12878C0F303102F
:10984000032806D0042804D0052802D0062907D012
:1098500011E0B4F82403A049C0F30420086002E03A
:109860003078000707D12878C0F30310032802D10D
:109870009B499A48486702F091FB28B1D4F844020A
:109880009849C0F3423008603878B84606280CD1B1
:109890003078000709D12878C0F30310032804D1D9
:1098A0009148016821F08071016002F09DFB002762
:1098B00040B14FF08040C0F80C71C0F81071894879
:1098C000001F076098F80000062807D131780907C3
:1098D00004D12978C1F30311032902D0062805D049
:1098E00019E0804A03216432116007E031780907EA
:1098F00011D12978C1F3031103290CD17B4B052227
:109900001A607A4A7832C2F80090784908310F60BC
:109910003F211A1D1160D4F830210A2A04D1D4F84D
:10992000341159B1012909D0062807D13178090726
:1099300004D12978C1F30311052955D16C4909686F
:109940006C4B19606A49091D09681B1D196068493B
:10995000083109681B1D196065490C3109681B1D18
:1099600019606349103109681B1D19606049143181
:1099700009681B1D19605E49183109685D4B203369
:1099800019605B491C3109681B1D19605849203159
:1099900009681B1D19605649243109681B1D19608F
:1099A0005349283109681B1D196051492C31096838
:1099B0001B1D19604E49303109684E4B4033196008
:1099C0004B49343109681B1D196049493831096810
:1099D0001B1D196046493C3109681B1D196044492B
:1099E000403109681B1D19600A2A05D1D4F83411C9
:1099F00011B9414AFB211160DFF80081062811D11D
:109A0000307800070ED12878C0F30310032803D064
:109A1000042801D0052805D1D4F8580200F04F01E0
:109A2000C8F8001002F094FA30B135480168C9074F
:109A300002D06FF001010160D4F83001062803D193
:109A4000D4F83411062902D00A2806D008E02D489F
:109A5000016841F48061016002E0D4F8340128B16A
:109A6000D8F8001041F00F01C8F800104FF0102195
:109A7000D1F80002002803DBD1F80402002823DA21
:109A8000214AC2F8009021480368002BFCD015231E
:109A9000C1F800320468002CFCD0C1F8043201681F
:109AA0000029FCD0176001680029FCD0BFF34F8F5C
:109AB0000D48F0380168164A01F4E0611143016075
:109AC000BFF34F8F00BFFDE7134912480860BDE8A0
:109AD000F0870000E00F00F0403501400DF0ADBA16
:109AE00000C007403C050040FCED00E0105600407F
:109AF0000404001020C5004018F50040E40E0040AA
:109B0000000400403C17004004E5014000E401402F
:109B10000400FA050090D003FC220020014902480D
:109B200005F048BE242A00200030004001480068AB
:109B3000004700003423002010B5124C02202061A1
:109B4000606111A0A06104F17800E0614FF4007041
:109B500020620020A06260620BA1A164E06204F5B3
:109B60001E71E1641021A065C4E91410E06509A12B
:109B7000E01DFFF7BEFC08A12046FFF7BAFC20203D
:109B8000A07110BDEC3000205465726D696E616C7F
:109B9000000000005254540053454747455200000E
:109BA0000269C1688A4203D88068401A104400E004
:109BB000501A401E70472DE9F047C4681746894681
:109BC00006464FF000083069A04201D9051B02E0AB
:109BD000B168201A0D1AB0686D1E001BA84200D88B
:109BE0000546BD4200D33D4670682A46204449469A
:109BF000FFF754FCB0687F1B2C44A844A944A04242
:109C000000D10024F460002FDDD14046BDE8F0878C
:109C10002DE9F04104468846D4E90207C51BE168F6
:109C2000606816460844B54206D94146FFF736FC3F
:109C3000B819E060BDE8F0812A464146FFF72EFCE6
:109C4000761B08EB050132466068FFF727FCE660EB
:109C5000F0E700000FB4084B10B504A902AA03985E
:109C600000F02EF8044602A9002000F05AFA20461F
:109C700010BC5DF814FB000023A1010002E008C83D
:109C8000121F08C1002AFAD170477047002001E076
:109C900001C1121F002AFBD17047000001212028BA
:109CA00003DA81400548014003E0402802DA203809
:109CB000814009B10120704700207047FC06FFBDBC
:109CC0002DE9FF4F8DB00F460546002606E02528FA
:109CD0000BD0DDE90F1290476D1C761C2878002808
:109CE000F5D111B03046BDE8F08F0024A246A14660
:109CF0000122EC4900E0044315F8013F203B02FA41
:109D000003F00842F7D128782A2810D06FF02F02EC
:109D10002878A0F13001092914D80AEB8A0102EB56
:109D2000410144F0020400EB010A6D1CF0E701CF91
:109D30005FEA000A03D544F40054CAF1000A44F073
:109D400002046D1C28782E2817D115F8010F44F055
:109D500004042A280ED06FF02F022878A0F13001D9
:109D600009290AD809EB890102EB410100EB01093D
:109D70006D1CF2E757F8049B6D1C28786C280FD0F7
:109D800006DC4C2817D068280DD06A2814D104E0CE
:109D9000742810D07A280FD10DE044F400140AE0A2
:109DA00044F4801401E044F440146978814202D103
:109DB00004F580146D1C6D1C2A786E2A1FD00CDCF3
:109DC000632A31D004DC002A8BD0582A11D1A3E0B9
:109DD000642A68D0692A0CD165E0732A2ED004DC8D
:109DE0006F2A73D0702A04D19BE0752A6FD0782A2D
:109DF0006ED01046DDE90F129047761C50E1C4F397
:109E00000250022806D0032809D0042801CF09D027
:109E1000066045E101CFF117C0E9006140E101CFE3
:109E200006803DE106703BE117F8040B8DF8000059
:109E300000208DF80100EB46012003E057F804BB39
:109E40004FF0FF3061074FF0000102D40DE008F140
:109E50000101884649450FDA8045F8DB1BF80810F8
:109E60000029F4D108E008F1010188468142FADBBB
:109E70001BF808100029F6D1DDE90F23AAEB080032
:109E80008146214600F036F9304400EB080604E034
:109E9000DDE90F121BF8010B9047B8F10108F7D26A
:109EA00021464846F7E00A21C4F302534FF0000B65
:109EB0000891022B04D001CFC117032B09D00AE06F
:109EC000FF1D27F00707F7E8020108E032E01FE076
:109ED00020E000B2C117042B01D140B2C117031E0C
:109EE00071F1000307DA4FF0000CD0EB0C006CEBC3
:109EF00001012D2302E0230504D52B238DF8243006
:109F0000012303E0E30701D02023F7E7984658E058
:109F10000A2110E010210EE010204FF0000B0890F5
:109F20000CE010214FF0000B44F004044FF008093E
:109F3000089103E008214FF0000B0891C4F302538D
:109F4000022B04D001CF0021032B06D006E0FF1D19
:109F500027F00707F7E8020103E080B2042B00D1E5
:109F6000C0B24FF0000823072BD5702A07D0DDF8C8
:109F700020C08CF0100C5CEA0B0C05D00EE04023E6
:109F80008DF82430012308E050EA010306D0302385
:109F90008DF824308DF8252002239846DDF820C066
:109FA0008CF0080C5CEA0B0C0BD150EA010301D1D8
:109FB000630706D530238DF824304FF00108A9F14E
:109FC0000109582A04D038A20B9208AA0A920BE081
:109FD0003AA2F9E75B46089AFFF71CFA0B9B9B5CD9
:109FE0000A9A521E0A92137050EA0102F2D10A989C
:109FF000ADEB000000F1200B600702D524F48034A3
:10A0000001E04FF00109D94502DDA9EB0B0000E0AA
:10A01000002000EB0B0141440890AAEB010AE00389
:10A0200006D4DDE90F232146504600F063F80644CC
:10A030004FF0000908E009A911F80900DDE90F1245
:10A04000904709F10109761CC145F4DBE0030CD50A
:10A05000DDE90F232146504600F04CF8064404E0A9
:10A06000DDE90F1230209047761C0899481E0890B1
:10A070000029F5DC08E00A980A990078491C0A9141
:10A08000DDE90F129047761CBBF10001ABF1010B2B
:10A09000F1DC21465046DDE90F2300F019F80644B3
:10A0A0006D1C1BE609280100303132333435363758
:10A0B0003839616263646566000000003031323314
:10A0C00034353637383941424344454600000000B4
:10A0D0002DE9F041044600251E461746880404D4A5
:10A0E00005E039462020B0476D1C641EF9D528468E
:10A0F000BDE8F0812DE9F041044600251E4690465A
:10A10000C80301D5302700E02027880404D505E0E6
:10A1100041463846B0476D1C641EF9D52846BDE857
:10A12000F0810A68531C0B601070704790F824008F
:10A130001F20704710B501220221002001F0CEF946
:10A1400008B1072810D107220221012001F0C6F929
:10A1500008B1072808D100210A22084601F0BEF9FB
:10A1600008B1072800D1002010BD022001F0C0B8BE
:10A1700070B50024064D06E06868012110F834002F
:10A1800003F090FF641C28788442F5D3002070BD52
:10A1900048230020F8B516460C4605460A2A01D287
:10A1A0000720F8BD04F078F818B904F03FF800284B
:10A1B000F7D1134F102113487D603C70BE60FFF74C
:10A1C00086F90020C7E904000F4E0DE005EBC4003E
:10A1D0003168009181788DF8011000780B4A69464A
:10A1E00003F0B2FF0028DCD1641EE4B2EED2BDE879
:10A1F000F84005480021064A001D00F087B800001D
:10A2000048230020802A002090040200F9C20100A7
:10A210008DBC010072B603F077FB00BF03F05CF960
:10A220000028FBD111481249401AC408012000EB54
:10A23000044010A103F0BEFA11480068C00700D026
:10A2400000BE022000EB04400EA103F0B3FABFF3FE
:10A250004F8F0B48E43801680E4A01F4E061114366
:10A260000160BFF34F8F00BFFDE70000A40F0200A5
:10A270003C0F0200466174616C206572726F72005F
:10A28000F0ED00E053797374656D20726573657449
:10A29000000000000400FA050EB500210091CDE990
:10A2A00001106A4644F20100FFF7B4FF0EBD10B57D
:10A2B0008268C368934203D001F040FF002010BDC4
:10A2C000052010BD29B112B1531E134203D009203D
:10A2D00070470E2070470160838000218160C1605B
:10A2E0000846704710B58268C3689A1A83889A42F4
:10A2F00003D801F02DFF002010BD042010BD000088
:10A30000014801F02ABD0000682300203AB100682E
:10A310000129426100D0002101610020704707201F
:10A320007047000038B51148082358224168009151
:10A330000F49006802F071FB002815D10D4A6946EB
:10A340000D4801F00FFD04000ED101210A4801F073
:10A3500080FD0123094A1946074801F0D6FC064949
:10A36000012008390870204638BD0000980402001A
:10A37000A02A0020A5F0010068230020FFFF7F0035
:10A3800070B50446007F0D4608B1002070BDA26183
:10A3900001F098FF401941F10001C4E90201206970
:10A3A00000B125612146BDE87040002005F04EB99E
:10A3B000014600200877012005F048B970B50A4E23
:10A3C00001460A48B578FFF772FF04464DB10020F8
:10A3D000B070711C0122C81D02F0BCFD08B1FFF76E
:10A3E0005BFF204670BD000084230020F82A002077
:10A3F000F0B5244E89B01F460D00044672603FD070
:10A40000A888296882B22048FFF75CFF002835D170
:10A41000A889A96882B21C481030FFF753FF0028B2
:10A420002CD1202219496846FFF738F86069069058
:10A43000207C00B101208DF814008DF81C70607C28
:10A4400000B10E208DF81500E0680290A06803901E
:10A4500020680190606800900A480D4A69460830FB
:10A4600002F044FD002809D1B0702068401C05D0DE
:10A4700004490122491CC81D02F06CFD09B0F0BD61
:10A480000720FBE784230020F82A0020AC04020008
:10A4900005FE010010B501461048FFF723FF040038
:10A4A00019D10F480F4A0178515C19B1001D04F011
:10A4B00047FA02E00C3004F01DF960B9084907487A
:10A4C0000839FFF7F4FE30B905490122083904487C
:10A4D00002F050FD0446204610BD0000082B00206D
:10A4E0008C2300202023002030B5EFF3108172B6BA
:10A4F0000D4A9468012324B10370002900D162B68B
:10A5000030BD93604FF0E023D3F88051074C2540D5
:10A510001560C3F88041D3F8844154605A17C3F8DA
:10A52000842100220270E8E7182B0020FC06FFBD02
:10A530000B498A68002A11D000280FD1EFF3108050
:10A5400072B60B684FF0E022C2F800314B68C2F8D7
:10A55000043100228A60002800D162B670470000F2
:10A56000182B00202DE9F041064608680C46411CD6
:10A570004FF0A0474FF0010506D005FA00F1C7F8EB
:10A580000815206802F078FE6068411C02D00021A6
:10A5900002F060FE3168A069C1F82405607D227D6B
:10A5A00031681043C1F86C05D4E900123068C0F876
:10A5B0001425C0F80C15207D012815D1A068411C78
:10A5C00002D0002102F046FEE068411C05D0854023
:10A5D000C7F80855E06802F04FFED4E9021230686F
:10A5E000C0F80825C0F81015BDE8F0812DE9F0414C
:10A5F000064608680C46411C4FF0A0474FF0010585
:10A6000006D005FA00F1C7F80815206802F03EFEF2
:10A610006068411C02D0002102F025FE3168A0696B
:10A62000C1F82405607D217D32680843C2F86C05BD
:10A63000D4E900123068C0F80C15C0F81425207D4C
:10A64000012815D1A068411C02D0002102F00BFEA8
:10A65000E068411C05D08540C7F80855E06802F065
:10A6600015FED4E902123068C0F80825C0F81015AC
:10A67000BDE8F08170B51500044609D000202860BF
:10A6800034B1206820B1A079800703D0072070BDC5
:10A690000E2070BD084600F009FBC0B2142804D09B
:10A6A0002179814203D8042070BD052070BDE28865
:10A6B000216800FB02102860002070BD2DE9FC47D6
:10A6C000002517880646158090F82D001446894607
:10A6D00030B13A462146484600F0FCFA051E09D141
:10A6E000B0784FF00C0A18B32088C846001DB84255
:10A6F00002D95046BDE8FC87684679DF0028F9D1C9
:10A700002088032108F8001020881921401C80B2FD
:10A71000208008F800102088401C80B2208000EBC8
:10A720000801BDF8000005F00EFD218808442080D6
:10A73000F0780222C8B1218896F9033001F1030CA8
:10A740004846BC45D5D8425421884FF0010C491CDD
:10A7500089B2218000F801C02188491C89B221807A
:10A7600009F801302088401C20807068B8B1218829
:10A7700090F9003001F1030C4846BC45B9D8425469
:10A7800021880A22491C89B2218042542188491C0F
:10A7900089B2218009F801302088401C208030894E
:10A7A00050B1CDE900474B460622022106F10800D0
:10A7B00005F08AFD051E9DD1308A50B1CDE90047D4
:10A7C0004B460722032106F1100005F07DFD051E12
:10A7D00090D1308B50B1CDE900474B461522142162
:10A7E00006F1180005F070FD051E83D1306A30B106
:10A7F0003B462246494601F0DEF9051EDBD1706A70
:10A8000030B13B462246494602F02AF8051ED2D115
:10A8100096F82C0038B13B4622464946304604F0B3
:10A82000A1FD051EC7D1307838B13B4622464946C6
:10A83000304602F09FF8051EBDD128465AE718B5EC
:10A8400004460020ADF8000013466A46204600F09A
:10A8500006F8002802D0BDF80000204418BD70B5ED
:10A86000C8B1C2B10024158803E0065D641C3444FD
:10A87000A4B2A54203D8061976789E4201D08C4234
:10A88000F3D38C4207D2005DA31C401E9BB280B262
:10A890001C188C4201D9002070BD138070BD80F857
:10A8A000301070472DE9F0410D00044606D02CB160
:10A8B00095F87A000026012803D006E00E20BDE8B6
:10A8C000F08195F89800012829D0D5F8A000042837
:10A8D00025D0D5F89C00042821D04FF00108A6709F
:10A8E0002C2205F17801201DFEF7D8FD84F8306098
:10A8F000D5F8A4006063D5F8A800A0634FF6FF70F8
:10A90000A4F8E80004F1D400C4F8E400C4F8EA6054
:10A91000A4F8EE6084F8F060207810B104E007201D
:10A92000CDE7FF2084F8540004F155072046C4F811
:10A93000D470FFF7FBFBA4F8D80004F1D802394625
:10A940002846FFF7BBFE0028B9D104F19300C4F8F4
:10A95000DC002046FFF7EAFBA4F8E00004F1E00287
:10A9600005F13C00D4F8DC10FFF7A8FE0028A6D1C2
:10A9700084F85180208BA4F8480084F83C80266439
:10A9800084F85060606900216064454604F13C022F
:10A99000781E72DF002892D1257090E710B50288EA
:10A9A000102A1BD0112A20D0262A1DD1007A0C464D
:10A9B000012801D0022817D1A0780521401CB0FB46
:10A9C000F1F201FB1201204600F03AF800280BD00A
:10A9D000A16B002908D0BDE810400847C27B012ABE
:10A9E00002D18088A1F8E80010BD0C46002184F84F
:10A9F000F2108088B4F8E8108842F5D12079002858
:10AA0000F2D10121DFE710B5044690F8540074DF5D
:10AA1000012084F8F200002084F8F40084F850004B
:10AA20000621204601F0A2FB002808D1A17820468B
:10AA300000F006F810B1A16B01B18847002010BDED
:10AA40002DE9F05F044600780F4698B1A770002505
:10AA5000C4F8EA50A4F8EE5084F8F050A07901262A
:10AA600008B1012F09D0E07980B1012F05D0022F64
:10AA700003D00BE00820BDE8F09F616B21B184F8A2
:10AA8000F1600820884701E084F8F15004F1EB01FF
:10AA900000200A5C0AB1304603E0401C0628F8D3C7
:10AAA00000204FF002084FF0030A4FF0040B012F73
:10AAB00006D0022F0CD0032F0FD0042F15D110E099
:10AAC000A17929B194F8241011B908B130460DE0EC
:10AAD000E17911B108B1404608E0207A08B150464A
:10AAE00004E0607A08B1584600E02846A070616B27
:10AAF00041B1032801D0042804D1607910B194F841
:10AB0000F20098B184F8F35004F13C001821074694
:10AB1000FEF7DDFC84F83C6004F12C0004F02AFA16
:10AB200058B194F82C0084F8510008E084F8F450EF
:10AB300084F8F36007208847E6E784F8516094F8CA
:10AB4000240058B104F1280004F014FA20B194F85C
:10AB5000280084F8520001E084F8526084F85050D4
:10AB6000A27804F1EA0104F1D409052A4DD2DFE804
:10AB700002F065030F1B320084F83160C4F8E45022
:10AB8000C4E9101584F83C808020A4F848003EE019
:10AB900084F8318087F800A0228ABA81C4F8E45092
:10ABA0007960E168B96032E06069B860208BB88193
:10ABB0003D4684F83C60204605F058FB40B185F8DE
:10ABC00014800421204601F0D1FAF0B9052115E0E6
:10ABD00084F831A017E0E069B860208CB8813D4668
:10ABE00084F83C60204605F041FB50B185F81480A4
:10ABF0000421204601F0BAFA38B9062184F8311050
:10AC000001E084F831B0C4F8E490A07878B13A4615
:10AC100004F15400D4F8E41072DF00287FF42BAF65
:10AC200094F8301094F8540073DF0028F6D1616B6B
:10AC300011B194F83100884700201CE784F83150A6
:10AC4000F5E7000070B5040012D001461C2214483C
:10AC5000FEF724FC1248134D0560206850B17ADFDE
:10AC6000002806D12068016829604068686005E016
:10AC70000E2070BD0B487BDF0028FAD108484FF644
:10AC8000FF711438084A20F8041B05493439016063
:10AC90000021FFF73BFB0028EBD0032070BD000034
:10ACA000CC280020182300200502020010B504461D
:10ACB00000F006F808B1204610BD142010BD0000B9
:10ACC000142801D3002070470146014801F0EFBE6F
:10ACD000EC2800207CB5054608880C4609309042D7
:10ACE00001D90C207CBD68466DDF0028FAD121888F
:10ACF0000820685420881B21401C80B220802954E1
:10AD00002088401C80B220802844DDF801100160BA
:10AD1000BDF8051081802088801D80B220809DF8BC
:10AD20000010490800D0012129542088401C2080AF
:10AD300000207CBDF8B5044601882F482F4A304DCD
:10AD4000801AC0086E8821293BD015DC2B4A2A4B7B
:10AD50004FF00300A3EB02024FEAD20200EB0240E5
:10AD6000102913D0112925D0132929D100231A46DF
:10AD7000852130467FDF17E03B2938D0522930D07B
:10AD800056291DD1A088132176DF0DE01DA102F008
:10AD900011FD072000F0C4FB08B1FFF77DFAA18880
:10ADA00069801B4801F0ACFF002809D0BDE8F840DD
:10ADB000FFF772BA17A102F0FDFC4FF6FF70688032
:10ADC000F8BD042101EB004016A102F0F3FC0020C5
:10ADD0000090A08869468FDF0028F1D0FFF75CFA69
:10ADE000F8BD00231A4619463046B1DFDCE7A088DB
:10ADF000132176DFD8E70000A40F02003C0F020009
:10AE0000D0220020436F6E6E65637465640000009D
:10AE100020270020446973636F6E6E6563746564F8
:10AE200000000000504859207570646174652072FC
:10AE30006571756573742E0010B51A4C01886068D1
:10AE400010290ED011292BD1401E606028D1FFF7A8
:10AE500071F9002824D02168002921D0BDE81040D4
:10AE60000847D0B900210122084600F037FB08B19D
:10AE700007280FD107220221012000F02FFB08B183
:10AE8000072807D104220221002000F027FB20B16F
:10AE9000072802D0216801B188476068401C6060C3
:10AEA00010BD0000102300202DE9F04701883B4E23
:10AEB00040F2F3194FF6FF7510291BD011293ED02F
:10AEC000122954D0502946D1C188F289841D91425B
:10AED00041D1618902293ED18688304601F02AFAA3
:10AEE000050038D004F10C0000F0BEF9A8B32946E3
:10AEF00030464EE0C17B8788044601292BD1A84605
:10AF0000284601F017FA050017D02F80002028727C
:10AF1000234843464A460168C5F80A104068C5F808
:10AF20000E0004F1100105F10A0001F0BDFA68728B
:10AF3000F08900280FD129462AE0042013E08088F8
:10AF400001F0F8F9040006D06068FFF731FA08B1A3
:10AF500004F0D8F92580BDE8F087FFE76868FFF7BF
:10AF600027FA0028F7D0BDE8F04704F0CBB987886E
:10AF70000646384601F0DEF90400ECD02B464A467E
:10AF800006F1080104F10A0001F08EFA6072214610
:10AF90003846BDE8F04700F055BE0000CC28002040
:10AFA000182300202DE9F04F044686880188424886
:10AFB00097B0834610290CD0112950D01030192990
:10AFC0006AD01A2974D1217A0C09042C4DD301229C
:10AFD0004CE0394D083DA868C0430B9069680BA848
:10AFE00001F086FD0B990CA800F0C6FD2C220CA9DF
:10AFF0006846FEF753FA0027E946A84610E000BF6E
:10B0000009EB47005FF00005B0F804A008EB8500ED
:10B010005146001D01F040FD6D1C1E2DF6D37F1C16
:10B020000098B842ECD8142E05D317B00420BDE820
:10B03000F04FFFF731B93146584601F043FD314634
:10B0400008F1040001F03EFDE07B012830D017B08C
:10B050003146BDE8F04F1848001D01F033BD17B070
:10B060003146BDE8F04F01F017BD0022314601F036
:10B0700078F8032C01D3012200E000220E4831466B
:10B080000C3001F06EF8022C01D3012200E0002206
:10B0900009483146083006E0217A002908D1617A52
:10B0A000C1F3C002314617B0BDE8F04F01F059B806
:10B0B00017B0BDE8F08F0000F0280020F0B585B093
:10B0C00016460F4604001D4614D004AA19466069AE
:10B0D000FFF7D0FA00280BD1A5F57F40FF380BD041
:10B0E000049848B1007848B13088F42808D907207E
:10B0F00005B0F0BD0E20FBE70520F9E70820F7E7D3
:10B1000000200090019002900390A088ADF800000C
:10B1100001208DF80200CDE9026769462846AEDFBE
:10B12000E6E7000070B5334D04008EB02DCD08AEBB
:10B1300086E82D005BD0E9B30868A061214608A825
:10B1400062DF002851D1207801258DF83200ADF85A
:10B150003050A21C0CA92846A8DF002845D1202188
:10B160006846FEF7B4F90220ADF8000020788DF8AB
:10B1700002008DF80C509DF80D00F426ADF8046027
:10B1800040F00C008DF81150ADF806508DF80D0010
:10B190008DF81250608804F10C02694600F0F6FB4D
:10B1A000002822D120216846FEF791F90320ADF84E
:10B1B000000000E01BE020788DF802008DF80C50B4
:10B1C0009DF80D008DF81150ADF8046040F01000AE
:10B1D0008DF81250ADF806508DF80D008DF8135013
:10B1E0006088221D694600F0D1FB0EB070BD0E20B4
:10B1F000FBE700005404020070B588B00446002943
:10B2000024D0002C22D008462188102920D0502993
:10B2100024D057291AD10546A188406906AAFFF70C
:10B2200029FA002812D1069E307800280ED0182165
:10B230006846FEF74CF901208DF800000195A088C2
:10B24000ADF808000396A9696846884708B070BD44
:10B2500008B02146BDE8704003F09CBC08B0214610
:10B26000BDE8704003F044BE007800F00100704774
:10B270000149085C70470000140402000649095C9B
:10B280004FF0A040D0F81005C84010F0010000D0E9
:10B29000012080F001007047140402002DE9FC41F8
:10B2A0000646C0074FF000050ED0104F00240122C3
:10B2B000385D009500231146019501F071FF641C73
:10B2C000042CF4D300F046F8B0070DD5074E002447
:10B2D000361D0022305D032300951146019501F0D3
:10B2E0005FFF641C042CF4D3BDE8FC811004020051
:10B2F00007490B5C4FF0A041D1F80425012098408C
:10B3000020EA0203C1F808351040C1F80C05704767
:10B31000100402000249085C012101F0E4BF0000B2
:10B32000100402000249085C002101F0DCBF0000AB
:10B33000100402000649095C4FF0A040D0F8040553
:10B34000C84010F0010000D0012080F001007047DB
:10B350001004020010B500242046FFF7DBFF641C38
:10B36000042CF9D310BD10B500242046FFF7DAFFF6
:10B37000641C042CF9D310BD10B50246064B4FF0E7
:10B38000FF3000215C5C944201D1084610BD491C8D
:10B390000429F7D310BD00001404020070B50C4E50
:10B3A0000C004FF0000530600BD0012000F06AF86F
:10B3B00008B1022004E0002000F064F800B10B2086
:10B3C0002070706810B9FEF7B5FE0546284670BDBE
:10B3D0001023002010B5002000F0DCF908B1062889
:10B3E00006D1012000F0D6F908B1062800D10020CE
:10B3F00010BD00002DE9F0470D468146FFF7BCFF68
:10B400000446042836D2DFF874801B481C4EA8F18D
:10B410000C0725B3012D0ED0022D2BD104EB4400D7
:10B4200030444578002D25D0B968002922D028461F
:10B43000BDE8F047084704EB4401755C0E447178A1
:10B4400049B10E4A4FF48041093A8068FEF798FFEF
:10B4500008B987F80390B17808F80410E2E780682B
:10B46000FEF7A6FF04EB4401314418F804008D7880
:10B47000A842D7D0BDE8F087180402000C230020B2
:10B4800068280020042801D2FFF7F8BE002070478A
:10B490000146104810B54088042907D007290ED06E
:10B4A0000A2915D1BDE8104003F0B8BF132176DF9B
:10B4B0000CE000280CD0BDE81040FEF7EDBEA0F572
:10B4C0007F41FF3904D10448FFF79DFA0828F0D1E5
:10B4D00010BD0000D02200202C27002070B50023D2
:10B4E000042810D20D4D00EB4004012A02D101299D
:10B4F0000CD00022094E00EB4000304461B101291C
:10B5000006D0022906D00723184670BD0E30C2B2FD
:10B510002A55F9E74270F7E78270F5E768280020BE
:10B52000044A014600201279D20702D0084600F0F2
:10B530004DB870470023002070B506461E48002411
:10B54000C0E90161B00720D5002501221146284637
:10B55000FFF7C4FF6D1C0446042D02D2002CF4D06A
:10B5600013E094B940F2333204211448FEF712FE7E
:10B5700004000AD1FEF7FCFD040006D10F48104A72
:10B580000021001FFEF7C2FE0446F00712D0012082
:10B59000FFF784FE74B909480A4A00210C38FEF707
:10B5A000B5FE040006D10548074A01210838FEF718
:10B5B000ADFE0446204670BD002300202404020096
:10B5C00099B801001DC501006BA101002DE9F05FD4
:10B5D0006E4C054600266078B34618B184F801B079
:10B5E00000F084FF6A4F4FF47A694FF4C87A4FF045
:10B5F0000108182D69D2DFE805F00C131338475401
:10B60000696E727B727BC58484848484B3B6B9BC52
:10B61000C5C500F06BFF3868FEF7CAFE06465CE061
:10B620000020FFF787FE00284FF0000008D0FFF74A
:10B6300071FE022D02D14FF4E16008E0484606E0B9
:10B64000FFF770FE022D01D1C82000E05046410CEA
:10B65000C0034FF47A72801841F100012570520046
:10B660000023FDF7D7FE01462AE00020FFF762FE27
:10B6700000284FF0000004D0FFF74CFE4FF4487054
:10B68000E5E7FFF74FFEDFE70020FFF753FE002856
:10B690004FF0000002D0FFF73DFECFE7FFF742FE7C
:10B6A000D4E70020FFF746FE00284FF0000002D04C
:10B6B000FFF730FE01E0FFF735FE257040F6CD4183
:10B6C00000223868FEF75CFE064646E00020FFF7E1
:10B6D0000FFE257008E0002051E025703DE084F861
:10B6E00001800120FFF704FE002240F26661E8E7D6
:10B6F00084F801800120FFF7FBFD00224FF4005188
:10B70000DFE77868FEF754FE0646D5F1110000D059
:10B710002EB10220FFF7FEFD84F802B01DE00128E3
:10B7200016D980B2C8214843C117C90341EA504124
:10B73000C0034FF47A72801841F1000152000023D7
:10B74000FDF768FE014600227868FEF719FE0646FE
:10B750000220FFF7E7FD84F802803046BDE8F09F45
:10B7600000F0C4FEB9E700F0C1FEB4E700F0BEFE91
:10B7700004E000F0BBFE0020FFF7D4FD0120FFF73E
:10B78000D1FDAAE7FFF7EFFDA7E7000000230020A7
:10B7900018040200012104F0FEBD00002DE9F84369
:10B7A0000546861C00208DF8000090460F464FF09D
:10B7B00001096846FEF798FE1B4C20683860D4E902
:10B7C0000001401AA16804F21C47081A0EE001218A
:10B7D000384601F087F900F0B3FE0146384601F023
:10B7E00081F9D4E90001401AA168081A401C864278
:10B7F000EDD8B8F1000F03D0052065F3891002E001
:10B80000062065F39F50A2682168114004EB810176
:10B81000C8602068304420609DF80000FEF788FE74
:10B820004846BDE8F8830000C82C002070B50D46DE
:10B8300004460A2902D10D21FFF7F8FFA06822680B
:10B84000411CA1601554D4E90101814204D3204672
:10B85000BDE8704001F0ABBB70BD0000034803C8F9
:10B86000814201D10120704700207047C82C002080
:10B87000034630B5074800210478426806E000BF5F
:10B8800002EBC10005789D4203D0491CA142F7DBC1
:10B89000002030BD4823002000780221FFF7AABD18
:10B8A00038B504461A490320FFF746FE08B1FEF7F3
:10B8B000F3FC69460020FFF771FD08B1FEF7ECFCD0
:10B8C00000211E2001F004FD4FF49675284601F07A
:10B8D0009FFA01211E2001F0FBFC284601F098FA96
:10B8E00000211E2001F0F4FC284601F091FA0949DC
:10B8F0000320C1F8000701211F2001F0E9FC9DF899
:10B900000000022802D00020207038BD0120FBE793
:10B9100091B401007C00005005494FF0FF32082827
:10B9200041F8202002D3084480F8482070470000E6
:10B9300078290020F0B54FF0FF3512B1002308261A
:10B9400001E008230C260C4C05E000BF54F82370DE
:10B950007F1C04D05B1CB342F8D32846F0BD2618E8
:10B960005DB286F8305044F82310002AF5D1E11872
:10B9700081F84800F1E700007829002002490844D6
:10B9800090F9300070470000782900202DE9F0433D
:10B990008146887891B090460C4600B901208DF818
:10B9A0003E002088ADF83C0000250095607C69468B
:10B9B00003F01CFD6E46A07C711C03F017FDE07BBC
:10B9C00000289DF8020002D040F0080001E020F0BD
:10B9D00008008DF80200217C11B140F0100001E058
:10B9E00020F010008DF80200217B11B140F0010021
:10B9F00001E020F001008DF80200217D09B1022153
:10BA000000E0012161F342008DF802001C2102A830
:10BA1000FDF75DFD607BC10601D4800617D50E954C
:10BA20000EAFE07C791C03F0E1FC9DF8380007972D
:10BA300020F00F00401C20F0F00010308DF838008E
:10BA40009DF83A0020F00600801C8DF83A00607BDB
:10BA50008DF80800A07B8DF80900142109A8FDF7D6
:10BA600036FD0FA8CDE90906A088ADF83000A06822
:10BA700020B1E088ADF82C00A0680D90A06998B3C3
:10BA800001950088ADF81000A06901AD01A94088BA
:10BA9000ADF81200A069406806950390A069007B8C
:10BAA00003F0A4FCA069691C407B03F09FFCA06923
:10BAB000807A00289DF8060002D040F0080001E0DE
:10BAC00020F008008DF80600A169C97A11B140F094
:10BAD000100001E020F010008DF80600A169097A3D
:10BAE00019B140F0010002E00DE020F001008DF8F6
:10BAF0000600A169897B09B1022100E0012161F3FF
:10BB000042008DF80600E06900B10590434609AA9D
:10BB100002A94846AADF11B0BDE8F08370B5084C11
:10BB2000050009D010342168002907D0086820607A
:10BB3000496828468847F6E70834F4E770BD0000F6
:10BB400064290020054A012120B1012805D1917006
:10BB5000FFF7E4BF51700020FAE770476429002026
:10BB600010B5D0E90234D1E90220D11AA04101D3A5
:10BB7000012010BD002010BD73B58CB0064600201A
:10BB800000900D9880B100246D4621460DA800F06C
:10BB90008EFF30B1009805EB400084800098401C77
:10BBA0000090641C142CF0D32C2269463046FDF71B
:10BBB00075FC0EB070BD2DE9F04117880646B81D22
:10BBC00014460D46984202D90C20BDE8F081318818
:10BBD000072206290AD34FF4486C4FF6FF736145DC
:10BBE00001D9994202D17088062801D21046ECE7AB
:10BBF000604501D99842F9D1994203D0984201D0C9
:10BC00008142F3D80520E85520881221401C80B2DB
:10BC1000208029542088401C80B22080411930881F
:10BC200004F091FA2188084480B22080411970887C
:10BC300004F089FA2188084420800020C5E7FEF737
:10BC40002BBB000038B54A7A0F4B62B100220A7252
:10BC50005969002906D001228DF80020ADF80200B4
:10BC60006846884738BD0A7A62B19B684C680246CC
:10BC700019462046FEF784FB0028F3D0BDE8384083
:10BC800003F040BB5B68F1E7CC28002070B50024CE
:10BC90000F4D10E0686800EBC406307802F0BCFA83
:10BCA0007178012901D0012100E000214140307864
:10BCB00000F0CAF9641C28788442EBDBD5E9040162
:10BCC000084303D0BDE8704003F0DCBC70BD000049
:10BCD0004823002010B50021024800F014FF80F333
:10BCE000100010BDE43000204FF480328A4001681B
:10BCF000C1F848230068C0F8082370474FF4A072C9
:10BD000002EB810189B200F00FBA2DE9F04105463E
:10BD10000E464FF4A07000EB860081B228684FF405
:10BD20008034B440984622F07F47C0F80843286822
:10BD3000C0F84843286801F0F5FE286800EB86004B
:10BD4000C0F840752868C0F84443B8F1000F02D02D
:10BD50002868C0F80443BDE8F0810068D0F8040505
:10BD60007047000070B54379224C44F82320427993
:10BD7000241D04EBC202204B1579204A9A1AD308DD
:10BD80002DB10824022000EB03401DA12EE0026823
:10BD90000D88C2F8085590F904208978002A4FEAE6
:10BDA000411106DA02F00F0202F1E02282F8141DBE
:10BDB00003E002F1E02282F8001490F9041001225D
:10BDC00001F01F0502FA05F54909890001F1E0219A
:10BDD000C1F80051417904EBC1010A71417944F87D
:10BDE00031000320002400EB03400EA101F0E2FC2F
:10BDF000204670BDA02300208C0F02003C0F0200E3
:10BE000052544320696E7374616E636520616C7275
:10BE10006561647920696E697469616C697A6564C9
:10BE20002E0000005254433A20696E697469616CB7
:10BE3000697A65642E00000090F90400012100F089
:10BE40001F0291404009800000F1E020C0F800127C
:10BE500070470A46022100F0EDB84FF4827100F0FD
:10BE600063B90068012101607047006801214160E9
:10BE700070472DE9F05F07460C464FF4A07000EBC9
:10BE800084001FFA80FA38684FF48036A6409B463B
:10BE900022F07F45C0F848633868C0F80863386806
:10BEA000D0F8048500EB8402D2F84095C2F84085B2
:10BEB0005146386801F036FEA9EB080020F07F40BB
:10BEC000012806D1102002F0E5F85146386801F04B
:10BED00029FE3868D0F80485C0F84463A5EB080152
:10BEE00021F07F413868012900EB840010D0C0F8B0
:10BEF00040553868D0F804156FF07F4C6A1A521E0E
:10BF000022F07F42ACEB0B03934217D362B118E0EF
:10BF10006D1CC0F84055102002F0BCF83868D0F80D
:10BF2000040540450AD10CE000EB84006D1CC0F80C
:10BF300040553868D0F80405884202D00D20BDE88D
:10BF4000F09F01223146384600F074F80020F6E7F1
:10BF50004FF08050D0F830110A2904D1D0F83401C4
:10BF6000B8B1012814D00C480078062811D10A482D
:10BF7000001D007800070CD1074808300078C0F396
:10BF80000310032805D0042803D0052801D0002081
:10BF90007047012070470000E00F00F04FF0805024
:10BFA000D0F830110A2904D1D0F83401B8B10128F1
:10BFB00014D00C480078062811D10A48001D0078DA
:10BFC00000070CD1074808300078C0F3031003289D
:10BFD00005D0042803D0052801D000207047012097
:10BFE00070470000E00F00F04FF08050D0F83011A3
:10BFF0000A2904D1D0F83401B8B1012814D00C4872
:10C000000078062811D10A48001D007800070CD1DD
:10C01000074808300078C0F30310032805D004282F
:10C0200003D0052801D00020704701207047000090
:10C03000E00F00F00368C3F84413002A02D0006840
:10C04000C0F80413704700002DE9F84F0E4634493C
:10C05000804601EB5001C007097801D00F0901E0CB
:10C0600001F00F074FF00009424601204946FDF755
:10C0700002FADFF8B0A004460D46052F4ED2DFE8E5
:10C0800007F003161B282C00002E47D00121404644
:10C0900003F016FA8DF800906846FEF725FA504630
:10C0A000D0E904120C431543CAE9044532E00EB14D
:10C0B000022114E0002112E04EB10321404603F0BA
:10C0C000FFF94046BDE8F84F012104F0EDB8012129
:10C0D00005E0002E22D1042101E02EB103214046CB
:10C0E000BDE8F84F03F0ECB90021404603F0E8F951
:10C0F0000021404604F0D8F88DF800906846FEF71D
:10C10000F3F95046E243D0E904341A4024EA050129
:10C11000CAE904219DF80000FEF70AFABDE8F88F8D
:10C12000802A00204823002010B5006842581AB128
:10C1300001F0F8FC012010BD002010BD826883884A
:10C140001A4003689A5C0A708168491C81607047D4
:10C15000C26883881A4003689954C168491CC16049
:10C1600070470AB100F0AEBC00F096BC70B50D4649
:10C170000446B0F8D810D0F8D4000122FEF75FFBD7
:10C1800000B1057004F13C0204F1D40104F1540043
:10C1900072DF70BD10B5002821D0114B0022001FA6
:10C1A000196803E0814203D80A4649680029F9D199
:10C1B00052B11368841A9C4204D10068184410607C
:10C1C000104602E0506000E0186039B102680B1AB6
:10C1D000934203D10B681A4402604968416010BD64
:10C1E0001424002070B505461148124A124C4B88A1
:10C1F0004688121BD408B3420FD10A88A2F52063E7
:10C20000773B0AD18988C91E8AB28280032000EB5D
:10C210000440134609A101F0D8FA04202B886A884B
:10C2200000EB0440BDE870400BA101F0CEBA000065
:10C23000D0220020A40F02003C0F02004461746170
:10C24000206C656E2069732073657420746F2030D4
:10C250007825582825642900415454204D545520F0
:10C2600065786368616E676520636F6D706C657477
:10C2700065642E2063656E7472616C203078257859
:10C28000207065726970686572616C2030782578FD
:10C290000000000010B50949094800F0B5FC08B1DC
:10C2A000FDF7FAFFF721064800F0A2FC002803D0B2
:10C2B000BDE81040FDF7F0BF10BD0000E5C1010072
:10C2C0001027002010B50B48FFF747FD094A083A30
:10C2D000D2E90434C018D2E9063244F10001C31A8D
:10C2E00071EB020204D24FF08072801841F100011C
:10C2F00010BD00006823002010B5C0B2FFF7B8FAE7
:10C300000446007801F088FF01466078012801D0DA
:10C31000012000E0002090EA010F08D00449D1E993
:10C320000401084303D1BDE8104003F0ABB910BDD0
:10C33000482300200146034802888A4200D000209A
:10C3400070470000B82800202DE9FC5F0E008346EE
:10C35000DDE90C47C6F1000098469246814600D4BC
:10C360000846012503E000BF90FBFAF06D1C504524
:10C37000FADAA84500D9454624B1002E01DB78073A
:10C3800000D5641EB80702D5B8F1000F0AD0F8072F
:10C3900008D13CB1A54205D220215846641EFFF7C2
:10C3A00045FAF6E7002E02DA4E462D2102E0780724
:10C3B00003D52B215846FFF739FA07F0030002286E
:10C3C0000BD1B8F1000F08D13CB1A54205D2302104
:10C3D0005846641EFFF72AFAF6E7CDE900474346C0
:10C3E00052463146584603F0B3FEBDE8FC9F0000BC
:10C3F00070B50D46044600684FF4887101F007FEE1
:10C400004FF49071206801F002FE4FF492712068A1
:10C4100001F0FDFD4FF4A271206801F0F8FD4FF42A
:10C42000AC71206801F0F3FD20681149C0F80413D5
:10C430002068690740F30730090E002806DA00F08B
:10C440000F0000F1E02080F8141D03E000F1E0206F
:10C4500080F800142068012140F3073000F01F022B
:10C4600091404009800000F1E020C0F8001170BD4B
:10C4700010034200024600201268530713D502F051
:10C480000300012802D002280CD105E0C2F383107A
:10C490000B68801C184404E00223086803EB9252E6
:10C4A0001044086001207047F0B58488A5189442B4
:10C4B00000D82246A41AC288D6189A4200D8134639
:10C4C000D21A4B880788BB420CD34088834209D8D4
:10C4D0008888A04206D3A84204D8C888904201D3D5
:10C4E000B04201D90020F0BD0120F0BD0A4810B5CE
:10C4F000807860B1002401E0022C06D02046FEF7CF
:10C5000009FF641C042CF7D310BD0324F6E7BDE833
:10C510001040FEF71FBF00000023002003480179F0
:10C52000C90702D00078FFF751B8704700230020F8
:10C53000F72101801721418000210171417170476D
:10C540002DE9FF410026234800F0C9FA2148001FC9
:10C55000074600F0C4FA204C60680090A56800E02F
:10C5600000986946284004EB80000C30FFF782FFFA
:10C570000028F5D101AA009901EA050304EB830321
:10C58000491CDB6842F82030401C00910228F2D39D
:10C59000019800F0030001280BD0022810D1019867
:10C5A000032101EB90500099BDF80A6001EB900067
:10C5B00005E00198BDF80A60C0F3831008440090BC
:10C5C000384600F089FA08B10098606004B030463F
:10C5D000BDE8F081E0300020C82C0020ACB018226B
:10C5E00069496846FCF75AFF6848069068494FF465
:10C5F0008070CDE9070109900723664A06A96846BD
:10C60000FDF7F6FE08B1FDF747FE4FF4804100202C
:10C6100001F044F908B1FDF73FFE00F04FFFFDF7D0
:10C6200081FE08B1FDF738FE2BA8FFF739F901F0BC
:10C630004BFA08B1FDF730FE01F0E0FB08B1FDF761
:10C640002BFE002469460120009401F07BFA08B11A
:10C65000FDF722FE684601F009FB08B1FDF71CFE5C
:10C660009DF808004CA120F00F00401C20F0F000C5
:10C6700010308DF808000A2202A87CDF08B1FDF70F
:10C680000BFE00941020ADF800003C200194ADF8A2
:10C690000200ADF804404FF4C870ADF806006846DB
:10C6A0007ADF08B1FDF7F8FDFFF7F4FD3D48019092
:10C6B00001A93D4800F02FFB08B1FDF7EDFD3B4817
:10C6C000009069463A48FEF72DFD08B1FDF7E4FDFC
:10C6D000AC216846FCF7FBFE02208DF800008DF8C7
:10C6E000024006208DF8030001203149ADF84C00CE
:10C6F000891F8DF87C0014914020CDE922042D483B
:10C700002990294869460C30FEF7CCF808B1FDF7AE
:10C71000C3FD254801210C30FEF7C1F81C216846F5
:10C72000FCF7D5FE4FF4A030CDE900404FF4F020E7
:10C73000029021480590032520488DF80C50069062
:10C74000ADF80E408DF810406846FEF77BFA08B150
:10C75000FDF7A2FD03F018F819481A49401AC0085D
:10C7600005EB004018A101F025F80F4803210C301B
:10C77000FEF766F908B1FDF78FFD00F0ADFE002869
:10C78000FBD101F0B5F9F8E7E8030200102500201D
:10C79000102600204DFC0100446F636B65725069E8
:10C7A0002D48000005DB0100202700205DE9010085
:10C7B000DC22002055EB010079EB01003FBC0100B9
:10C7C000A40F02003C0F02004465627567206C6F85
:10C7D0006767696E6720666F722055415254206FFB
:10C7E0007665722052545420737461727465642E9D
:10C7F00000000000F0B50B30154D20F007010024BB
:10C80000144A0FE003688B420BD38B4205D95E1AA2
:10C8100043184768C3E9006700E04368136002C03B
:10C8200004E0021D10680028ECD12046002802D147
:10C83000286808B10020F0BD064A07481060074A82
:10C84000121A22F00702C0E9002401202860D7E76D
:10C8500018240020142400207C330020783B002082
:10C8600070B5144682880E4605462088111D014485
:10C87000921C994201D8FE2A01D90C2070BD521C8D
:10C8800032542088FF21401C80B2208031542088FF
:10C89000401C80B220808119288803F054FC218834
:10C8A000084480B22080AA8842B1A96841B13044CE
:10C8B000FCF7F4FD2088A98808442080002070BD82
:10C8C000072070BD2DE9F047C5881E1DB6FBF5F7A2
:10C8D0008946B6FBF5F1044605FB176C40791668EE
:10C8E0006843DDF820A0F718001F874200D9C61A58
:10C8F000166001E02468491E0029FBD1A5EB0C0756
:10C900008846B74216D818E004EB0C00001D09EB6E
:10C910000803BAF1000F3A4602D00146184600E07B
:10C920001946FCF7BBFD2468F61B4FF0000CB84419
:10C93000B54201D9374600E02F46002EE4D1BDE8CC
:10C94000F087000030B5024651B100F0C5FF00216C
:10C95000074C08E034F821301568AB4202D1116071
:10C96000002030BD491C8142F4D3052030BD0000B9
:10C9700000000000F8B50F4601781446054601296D
:10C9800001D1687830B12088821C9A4232D80129BE
:10C9900002D006E00720F8BD69780144891C99425D
:10C9A00028D8181A801E86B2ADF800602188B81CFD
:10C9B000084469467DDF0028EDD12978022904D09A
:10C9C0006878BDF80020904205D3BDF80000B04261
:10C9D00001D809200AE00820012905D16978B1426F
:10C9E00002D8ADF8001001E0ADF80060BDF800100D
:10C9F000FE2901D90C20F8BD2288491CB954218890
:10CA0000491C89B2218078542088401C2080BDF8C0
:10CA10000010084420800020F8BD10B531B1B2FBF1
:10CA2000F3F403FB14241CB1092010BD0E2010BD2B
:10CA300001600021416081608281C381084610BD90
:10CA400070B50C460546FCF7E5FB002802D02188AE
:10CA50002868084470BD10B50A8849888A4203D105
:10CA6000FCF71AFC012010BD002010BD70B50C466B
:10CA70000546FCF7F4FB002802D0618828680844CA
:10CA800070BD10B50A8849888A4203D1FCF7DEFBE5
:10CA9000012010BD002010BD01F01F0301229A40AB
:10CAA000D243490900EB8100114600F021B84A0940
:10CAB00050F8220001F01F0201219140084000D0EF
:10CAC0000120704701F01F0301229A40490900EB41
:10CAD0008100114600F01CB8002100F00FB80121C0
:10CAE00000F016B808B56A46FCF72BFC009808BDA4
:10CAF00008B56A46FCF70BFC009808BD08B56A4605
:10CB0000FCF705FC08BD08B56A46FCF7E7FB08BD65
:10CB100008B56A46FCF7EEFB009808BD08B56A4602
:10CB2000FCF71CFC009808BD38B5044600258DF8BC
:10CB300000506846FDF7D8FC21686268086890429A
:10CB40000ED9401E08600178238AE26801FB0325A4
:10CB5000227A2168101AC0B20A79824200D2087182
:10CB60009DF80000FDF7E4FC284638BD38B50546C1
:10CB700000208DF800000C466846FDF7B5FCE8681B
:10CB8000298A201AB0FBF1F12A681068431C13604F
:10CB900001709DF80000FDF7CBFC38BD10B530B139
:10CBA000017A42680368891AC9B21A6006E00E2049
:10CBB00010BD03681A68541C1C601170491EC9B26C
:10CBC000F7D2006800210171084610BDC20800F0CC
:10CBD00007030120895C98400840704710B5C208DF
:10CBE00000F00703885C01249C402043885410BD5A
:10CBF00028B1A1F11702E12A03D3072070470E20C4
:10CC0000704701800020704710B560B1C160F72106
:10CC100020F8021B20F8021BFB2100F8021BFFF783
:10CC200087FC002010BD0E2010BD00002DE9F04152
:10CC30000C468188002940D101880025102906D0A2
:10CC4000112909D03A290BD0552912D10DE00146FE
:10CC5000204601F0D5FF0CE0A01DFFF769FC08E0BD
:10CC60000146204602F0ECF803E00146204602F0BF
:10CC70003FF8A07A002820D02846E188A5DF104997
:10CC8000104A0127891ACE0858B1112815D001F091
:10CC900093F9024607EB0640BDE8F0410AA100F017
:10CCA0008DBDA572E77204202B46E28800EB06409A
:10CCB000BDE8F041114900F088BDBDE8F0810000F9
:10CCC0003C0F02003C0F020073645F626C655F679B
:10CCD000617474635F65786368616E67655F6D74C6
:10CCE000755F726571756573742829207265747536
:10CCF000726E65642025732E00000000A0070200FC
:10CD000020B10278DE2A03D0082070470E20704739
:10CD100041800020704760B159B10278DE2A0AD004
:10CD200009684160DE2101704FF6FF7141800020EB
:10CD300070470E207047082070477FB505460029D0
:10CD40004DD0002D4BD008780C46DE2847D1A8885E
:10CD50006188884202D1204603F094FA288801288D
:10CD600025D002283BD011283AD0512837D135F8A8
:10CD7000040F6188884232D1A978A81C02292ED1DB
:10CD8000017A042903D0062901D0052927D10021E1
:10CD9000009102228DF8002001914FF4C07202919F
:10CDA0000391ADF80420007A05280FD010E0297A0D
:10CDB0002046012913D1A988428891420FD101212F
:10CDC000017204B0BDE8704003F05CBAADF8041025
:10CDD00028886946B0DF002801D0616888477FBD98
:10CDE000A88861888842FAD14FF6FF7060807FBDC5
:10CDF00000F180400068002800D00120704708B58D
:10CE000000F18040002101600068009008BD000032
:10CE10002DE9F041040007D0044E4FF47A47751C09
:10CE20003846A847641EFAD1BDE8F081D00302005D
:10CE300070B50B4C207808B185250FE00020A0606C
:10CE400060602061E060074801F0FEF8054601F0EF
:10CE500021F808B901F0E2F801202070284670BDE1
:10CE60006429002045BB010038B500258DF800502D
:10CE70006846FDF739FB074CE068401EE060E0685B
:10CE800010B901F0F1F8A5709DF80000FDF750FB16
:10CE900038BD0000642900202DE9F04106460478E1
:10CEA0000B4815460F4640F82420001D40F824305A
:10CEB000487B10B1084602F0F1FB0DB1054A00E0D5
:10CEC000002223463946301DBDE8F04101F024BA66
:10CED0003C23002049F70100001D01F08DBA38B550
:10CEE000001D049C009401F09FFA38BDF0B5054682
:10CEF0000478154889B0164640F82420124A08697B
:10CF0000121DA2F1080742F82400487F385520225C
:10CF10006846FCF7C3FA04942878385C48B10EB12F
:10CF20000A4A00E000226946281D01F0FBFB09B017
:10CF3000F0BD0EB1064A00E00022694605F10C0082
:10CF400001F0A6FAF3E70000242300200500020008
:10CF5000A9FE010030B40378054CE35C1BB130BC82
:10CF6000001D01F015BC30BC0C3001F0F9BA000016
:10CF70002023002030B40378054CE35C1BB130BCA7
:10CF8000001D01F087BC30BC0C3001F05FBB00001D
:10CF9000202300200FB408B50399002904D004AA67
:10CFA00000926A4600F00FF801B05DF814FB10B56E
:10CFB00082680446002A05D0D4E904032168984712
:10CFC0000020A06010BD2DE9FC4791460C00804672
:10CFD00076D014F8011B39B125290ED04046FEF752
:10CFE00025FC20780028F4D198F80C00002867D0A0
:10CFF0004046BDE8FC47FFF7DABF00200122217858
:10D000002B291BD02D2902D0302908D102E040F075
:10D01000010001E040F00200641C002AEFD100256D
:10D020002A290ED02178A1F130020A2A11D205EB6B
:10D03000850201EB4205641C303DF1E740F004003D
:10D04000EAE7D9F800100B1DC9F800300968641C24
:10D050000D44217800232E290BD114F8011FA1F1D2
:10D0600030020A2A05D203EB830201EB4203303B74
:10D07000F3E76C290DD068290BD0692921D00BDC8E
:10D08000252918D0582931D063290ED0642915D10B
:10D0900017E014F8011FECE7702969D0732932D02A
:10D0A00075291BD0782909D120E0D9F80000011D8D
:10D0B000C9F8001001784046FEF7B8FB641C90E701
:10D0C0006CE0D9F800100A1DC9F800200968CDE904
:10D0D00000500A224046FFF737F9EFE7D9F8001071
:10D0E0000A1DC9F8002009680A2206E0D9F80010D4
:10D0F0000A1DC9F8002009681022CDE900504046F9
:10D1000003F026F8DAE7D9F8001000270A1DC9F85D
:10D1100000200E68C00705D112E04046761C7F1C37
:10D12000FEF784FB31780029F7D104E02021404646
:10D130006D1EFEF77BFBBD42C0D9002DF6D1BDE7C9
:10D140004EB13046FCF7CEF9074604E020214046B8
:10D150006D1EFEF76BFBBD4206D9002DF6D103E034
:10D160004046761CFEF762FB31780029F8D1A5E72E
:10D17000D9F80000011DC9F80010056830214046AB
:10D18000FEF754FB78214046FEF750FB08200021B3
:10D19000CDE90001034610222946B0E7BDE8FC872F
:10D1A00070B541EA4201DDE904564FF0A04441EA7E
:10D1B000830141EA052104EB800041EA0641C0F801
:10D1C000001770BD70B541EA4201DDE904564FF029
:10D1D000A04441EA830141EA052104EB800041EAD1
:10D1E0000641C0F8001770BD70B541EA4201DDE9A3
:10D1F00004564FF0A04441EA830141EA052104EBC3
:10D20000800041EA0641C0F8001770BD70B541EAE0
:10D210004201DDE904564FF0A04441EA830141EAAE
:10D22000052104EB800041EA0641C0F8001770BDFB
:10D2300070B541EA4201DDE904564FF0A04441EAED
:10D24000830141EA052104EB800041EA0641C0F870
:10D25000001770BD1CB500220B46009211460192CA
:10D26000FFF7C2FF1CBD1CB500220B460092114601
:10D270000192FFF7CBFF1CBD1CB5002100910B46AE
:10D28000012201911146FFF7AFFF1CBD1CB5002123
:10D2900000910B46012201911146FFF7B7FF1CBD1B
:10D2A0004FF0A04202EB8000D0F8002722F4403279
:10D2B000C0F80027D0F8002742EA0141C0F8001763
:10D2C00070474FF0A04201218140C2F80815704715
:10D2D00001224FF0A043824011B1C3F808257047E6
:10D2E000C3F80C25704701224FF0A043824011B1D2
:10D2F000C3F808257047C3F80C25704718B5084BCC
:10D300006C4601441B68009306E000BF54F82030CF
:10D31000D3F81035401C08C28142F7D818BD000070
:10D3200064040200034908B5084400210160006854
:10D33000009008BD0060004002494058012800D01C
:10D34000002070470060004030B5154A01460020BB
:10D35000D2F8104423460AE0DB681D79854205D1E6
:10D36000401C0A28F6DB4FF0FF3030BD1B68002B55
:10D37000F2D1431CF9D0CB681871D2F8103443B104
:10D38000DB68CC681B682360D2F81024D268116077
:10D3900030BDC2F81014C96800220A6030BD000018
:10D3A000C82C00207047FCF707BA704708B5034A3D
:10D3B00000924023024A00F005F808BD15F3010071
:10D3C000302B0020F0B595B01C4615460F46084698
:10D3D0001A9E00F053FB182109A8FCF778F80E9666
:10D3E000CDE909540023082203A9384600F05BFB6D
:10D3F00005980690BDF81000ADF81C00BDF81200AD
:10D40000ADF81E0000208DF821000398082600F0DA
:10D410000300012802D0022818D032E003983346D6
:10D42000850AC0F3C2008DF8200003980FA9C0F34D
:10D430008314A200384600F036FB09A8009006AB22
:10D4400022460FA9284600F075FA1AE00398840DC9
:10D45000C0F3C2008DF82000082C01D2254600E060
:10D46000082533462A460FA9384600F01CFB2E44F7
:10D47000641B09AB06AA29460FA800F0B7F9002CD7
:10D48000EAD1384600F000FB15B0F0BD0A4A012988
:10D4900002EBC00007D0022907D0032907D00429D6
:10D4A00007D00020704702207047042070470079A1
:10D4B00070474079704700003C0F020010B5FFF73D
:10D4C00072FF04210348FFF73FFF02490120C968AA
:10D4D000487110BD2C0F02002DE9F04F8DB0FEF702
:10D4E000BDF918B100200DB0BDE8F08F7E4C4FF0B3
:10D4F000000BC4F818B4BFF34F8F60680290A568A2
:10D50000D846284004EB80000CE000BFD4F8180493
:10D5100070B921680298814201D86160E2E7284031
:10D5200004EB80000C3002A9FEF7A4FF0028EDD127
:10D53000002005AA029901EA050304EB8303491CB4
:10D54000DB6842F82030401C02910228F2D3059893
:10D5500000F00300022802D001284DD0AAE005986F
:10D560005022810D8946B2EB905F00D850210E46C3
:10D5700066F39F50059008315C4800F036FA0700CA
:10D5800078D000F07BFA4346082205A9384600F01F
:10D5900092FA029908F1080A2940681A8000001DD1
:10D5A000864222D9504D0C3530B1C2B204EB810114
:10D5B000301A90460C3104E02946F2B2002590461C
:10D5C0002846C6B25346384600F075FA0AEB0803FF
:10D5D00025B132462946384600F06DFA029909F124
:10D5E000030001EB900002903BE004EB8101534605
:10D5F000324638460C31EFE70598C0F38310062811
:10D6000000D30620059960F38911C1F38310801CB3
:10D6100005918100354800F0E8F907004AD000F094
:10D620002DFA4346082205A9384600F044FA08F1CD
:10D63000080800260FE00298434600EA0501401C56
:10D6400004EB81010290042238460C3100F033FAD9
:10D6500008F10408761C0598C0F38310B042EAD89C
:10D6600047B1D4F81054D4F8180478B1384600F013
:10D670000BFA34E01EE0E8684079012804D12A68FA
:10D680002846394612689047E8680568002DF2D1AF
:10D69000384600F0F9F98DF800B06846FCF724FF31
:10D6A000D4F8180408B9029860609DF80000FCF7EF
:10D6B0003FFF14E0D4F8104405E021682046896853
:10D6C0008847E0680468002CF7D109480949401AE6
:10D6D000C008022101EB004007A100F06BF8FEF743
:10D6E000BDF880F00100FEE6C82C0020C40F020047
:10D6F000A40F02003C0F02004261636B656E64730D
:10D7000020666C7573686564000000002DE9F84FB1
:10D710008146DFF89C80D01C15468A46800800228E
:10D720006946D8F80860FEF739F8B8B3009CA01C29
:10D730000090D8F808103040091A8F003F1DBD42F4
:10D7400008EB800002D82A46514608E03A46514686
:10D750000C30FBF7A3FE1648EA1B0AEB07010C305E
:10D76000FBF79CFE4FEA1947FEF7B4FA47EA00427E
:10D77000601C304008EB8000344008EB8401C2603C
:10D78000C8684FF6C07269F3C500904365F39F50B7
:10D7900020F00300801C20F00400C86098F82004EA
:10D7A00002E000BFFFF798FE0028FBD1BDE8F88F2C
:10D7B000C82C002000231A4601F09ABE08B50123A8
:10D7C00000926A4601F094FE08BD1CB5CDE9002325
:10D7D00002236A4601F08CFE1CBD3EB5069C8DE816
:10D7E0001C0003236A4601F083FE3EBD2DE9F0478D
:10D7F0000E4680461C469246082940D894F80C9064
:10D80000002020731946104601F0F4FB0025B542B4
:10D8100006D218F805201BA12046FFF7BBFB03E04A
:10D820001AA12046FFF7B6FB6D1C082DEFD318A1F7
:10D830002046FFF7AFFB0025B54212D218F805705D
:10D840007E2F08D8FBF726FE0068C05D10F03E0F63
:10D8500001D03A4600E02E220EA12046FFF79AFBA7
:10D8600003E00DA12046FFF795FB6D1C082DE3D3C7
:10D8700001222146504601F09FFB84F80C90BDE840
:10D88000F0870000202530327800000020202000A2
:10D890007C00000025630000200000000B4810B54C
:10D8A000FF218160002101604160C0F81814C0F8B8
:10D8B000141480F82014064800F0E4F8002803D17E
:10D8C000044800F021F9002010BD0000C82C002001
:10D8D000C40F02006806020002480349401AC0084B
:10D8E00070470000C40F02003C0F020013B56846E9
:10D8F000FFF728F808B100201CBD0248009950F835
:10D9000031001CBD3C0F020070B509480125D0F85C
:10D91000104480F8205407E0E068457121682046F3
:10D9200049688847E0680468002CF5D170BD0000A4
:10D93000C82C00202DE9FF4781460C9D00200C4695
:10D940002F7B2873984616462946184601F052FB4D
:10D95000072E42D2DFE806F004090F161F2A360010
:10D9600049462846FFF716FB37E049462846226815
:10D97000FFF710FB31E0D4E9002349462846FFF7C2
:10D9800009FB2AE0A0680090D4E900234946284614
:10D99000FFF700FB21E0D4E90201CDE90001D4E961
:10D9A000002349462846FFF7F5FA16E004F108007F
:10D9B00007C88DE80700D4E9002349462846FFF749
:10D9C000E9FA0AE004F108000FC88DE80F00D4E975
:10D9D000002349462846FFF7DDFA00222946404643
:10D9E00001F0EAFA2F73BDE8FF872DE9F041058ABF
:10D9F00080462D1F4819C01CB0FBF5F0C6B240464A
:10DA0000FFF792F8041E19D00020207101206071E8
:10DA1000E58000272546761EC4F800800BE04046CE
:10DA2000FFF782F860B16179491C61712860054691
:10DA30007F1CC0F80080B742F1D32046BDE8F081DA
:10DA4000204600F002F80020F8E72DE9F041457982
:10DA500001466B1E002201E00968521C9A42FBD36A
:10DA60000F680146002605E038460C68FFF77EF88F
:10DA70002146761CAE42F7D3BDE8F0810121001D9E
:10DA8000FFF730B8FFF78AB810B504460121001D32
:10DA9000FFF744F810F0FF0F04D12046BDE8104016
:10DAA000FFF7D3BF10BD1CB501920122009201AA5D
:10DAB000FEF708FF1CBD1CB501920022009201AACE
:10DAC000FEF700FF1CBD0000064910B5002048709D
:10DAD000091D0860BFF35F8F0349044800F0FEF999
:10DAE000002010BDAC23002000050200242B0020E4
:10DAF00010B500F0CFF908B141DF10BD20BF40BF25
:10DB000020BF10BDFCF7C8BB82680021916082680D
:10DB10001161826851618268D16082685160806859
:10DB20000160704708B5002242504058009008BD7F
:10DB300020B1034909680160002070470E2070473A
:10DB4000EC0602002DE9FE4307460E460846FFF7A5
:10DB5000EFFF002878D100250095019506208DF86B
:10DB600000704FF00108ADF8040002958DF80280B6
:10DB700069462020326869DF3449354A891AC90864
:10DB8000012202EB014430B100F016FA02462046B1
:10DB90003049FFF713FE0095019502958DF801803D
:10DBA00069464020326869DF30B100F005FA02466C
:10DBB00020462949FFF702FE00958DF80070F720F6
:10DBC000ADF802000195029569462320326869DFAD
:10DBD00030B100F0F1F9024620462049FFF7EEFD92
:10DBE0000095019502958DF8008069460120326804
:10DBF00069DF30B100F0E0F9024620461849FFF72E
:10DC0000DDFD4FF4B0600090019502956946A120BA
:10DC1000326869DF30B100F0CFF902462046114981
:10DC2000FFF7CCFD0095019502958DF800506946EF
:10DC3000A020326869DF30B100F0BEF9024620460C
:10DC40000949FFF7BBFD0020BDE8FE83B40F0200C9
:10DC50003C0F0200840D0200CC0D0200180E0200E1
:10DC6000E40C0200300D0200900C02002DE9F0419E
:10DC70000546076860DF804619491A482A68081A6D
:10DC8000C608BA4219D9022000EB064416A1204664
:10DC9000FFF790FD20463A461FA12B68FFF795FD40
:10DCA0004FF08050D0F80C012968800200F100503C
:10DCB000421A204625A1FFF781FDB8F100004FF080
:10DCC00001040AD000F078F9024604EB06402AA1CC
:10DCD000FFF774FD4046BDE8F0812F480470F9E776
:10DCE000B40F02003C0F0200496E737566666963EB
:10DCF00069656E742052414D20616C6C6F63617474
:10DD0000656420666F722074686520536F66744482
:10DD100065766963652E00004368616E67652074EF
:10DD200068652052414D207374617274206C6F637A
:10DD30006174696F6E2066726F6D2030782578206F
:10DD4000746F20307825782E000000004D617869CE
:10DD50006D756D2052414D2073697A6520666F7232
:10DD6000206170706C69636174696F6E20697320E3
:10DD7000307825782E00000073645F626C655F6503
:10DD80006E61626C6528292072657475726E6564B7
:10DD90002025732E000000001324002030B5154804
:10DDA000ADF5017D0078002821D04FF4FA7500BF51
:10DDB000ADF8005280A9684661DF38B1052816D059
:10DDC0000DF5017DBDE83040FCF766BA6C460A49A6
:10DDD0007DA800F083F806E0D0E9002120469047B6
:10DDE0007DA800F092F87F980028E1D0F4E70DF5C7
:10DDF000017D30BD13240020F00602007CB5194CD3
:10DE0000207808B108207CBD0120A070002001F01E
:10DE10004BFA112819D0002001F05EFA12480026B2
:10DE2000006801908DF800606846FCF75DFB0F49C3
:10DE300001A810DF05000AD0002020709DF8000026
:10DE4000FCF776FB2DB128467CBD00207CBD01206F
:10DE5000F3E7A670667001F001FB012001F03CFAC7
:10DE6000F3E70000102400208406020015A2010040
:10DE70000EB50749684600F031F805E0D0E900101A
:10DE80008847684600F041F802980028F6D10EBD98
:10DE9000A00602000148007870470000102400200E
:10DEA0001FB568464BDF30B1052814D004B0BDE87B
:10DEB0001040FCF7F1B9084901A800F00FF806E09E
:10DEC000D0E900210098904701A800F01EF80398BF
:10DED0000028E6D0F4E71FBD0C07020001600968C6
:10DEE0004160AFF3008010B5D0E90021536899423A
:10DEF00001D1002104E0D1E90034A34202D0194647
:10DF0000816010BD08314160F0E7816800290BD0C5
:10DF1000026892680A44826041684B689A4203D161
:10DF200008314160FFF7DFBF704770B50D46064608
:10DF3000446804E0B2682946904718B12468206814
:10DF40000028F7D120682860256070BD406800680F
:10DF5000704741680868002801D002680A6070476D
:10DF600002460020526806E08B4203D10868106028
:10DF7000012070471A461368002BF5D17047000046
:10DF80000C4A10B502F594730EE0991AC91001EB12
:10DF9000D171491002EBC1010C68844201D90B46D2
:10DFA00002E005D201F108029A42EED3002010BD32
:10DFB000486810BD2005020000B5FFF7E1FF00280A
:10DFC00000D1014800BD00000C05020040580028A7
:10DFD00000D00120704708B5002242504058009000
:10DFE00008BD4058002800D00120704708B5002225
:10DFF00042504058009008BDD0F80403084000D0BB
:10E00000012070474058002800D00120704708B513
:10E01000002242504058009008BD000008480068A7
:10E02000012110F0010F06D14FF0E020C02280F84E
:10E030000024C0F800110349002008607047000068
:10E0400000E100E0180500400649024600200B7977
:10E050000BB18520704700238B710A6001220A7181
:10E060004B7170472C2300200449012008600448AC
:10E070000168C1F300410029FAD170470C0000404B
:10E0800018040040002802D0014980010847704769
:10E0900071040200002802D001498001084770473E
:10E0A000D10402002DE9F0418846054600F06CFFDE
:10E0B000234E002828461AD0FDF760FC304490F823
:10E0C00048008009032802D001280ED007E04FF055
:10E0D000A040D0F81005E84010F0010F05D0032152
:10E0E0002846BDE8F041FFF7DBB80221F8E700F071
:10E0F00057FF002822D02846FDF740FC04464FF485
:10E10000807000EB84000F4F81B207EB8400D0F8E1
:10E11000102542F00102C0F810250846FFF702F969
:10E12000B8F1000F0AD02846FDF728FC56F8200069
:10E13000002803D00120A040C7F80403BDE8F08107
:10E1400078290020006000402DE9FC41DFF8BC8008
:10E15000044608EB0400002790F930001346C0176E
:10E160000E46401C01D008274CE0B0781946C0F399
:10E1700040022046FDF7DEFB0546401C41D0B0784A
:10E18000410719D4C0070AD04FF0A04000EB84012A
:10E19000D1F8000720F00200C1F8000707E00021D5
:10E1A0007378204600910A460191FFF70BF8174952
:10E1B00020465431FEF712FDB078800718D5144878
:10E1C000317800EB8500D0F81025124B1A40C0F8CA
:10E1D00010254FF4F8524FF4403302EA042203EAC8
:10E1E00001410A43D0F810150A43C0F8102509E090
:10E1F00008EB0500327810F8481F41EA82110170DF
:10E2000000E004273846BDE8FC81000078290020A2
:10E2100000600040FFE0FCFF4FF0A041D1F8101576
:10E22000C14011F0010000D00120704770B5174DBA
:10E2300095F8580008B1082070BD0020411E2A182A
:10E24000401CC0B282F830102028F8D300242046A9
:10E25000FDF762FB641CE4B20C2CF8D300240C49DB
:10E26000C0206C6581F8000401264020891FC1F898
:10E2700000014FF4BE70FFF755F80649F007C1F8EA
:10E28000040385F85860204670BD000078290020FE
:10E2900006E000E000600040034890F858000028C5
:10E2A00000D0012070470000782900200121B1EB47
:10E2B000507F01D1012070470020704738B50D46CE
:10E2C00000F0E4FE040014D000208DF80000684641
:10E2D000FCF70AF9207928B19DF80000FCF728F92D
:10E2E000112038BD0120256020719DF80000FCF749
:10E2F0001FF9002038BD00000179064AC1EB011169
:10E30000006802EB81010522C0F80025022081F897
:10E310002E007047242A00202DE9FC4106461746AE
:10E3200000790D46324AC0EB001102EB8104984699
:10E3300094F82E1011B10820BDE8FC812D4951F848
:10E3400020103068FFF7BAFF08B11120F4E7C4E9E4
:10E3500000780027A76084F82D7084F8317084F865
:10E360003070687B84F838004FF00608CDE90087EC
:10E3700003233A4639462868FEF75AFFCDE900875D
:10E380000022032311466868FEF752FFD5E9001208
:10E390003068C0F80815C0F80C25A968C0F8241525
:10E3A00020680122F8B1306840F30731287B00294A
:10E3B0004FEA401006DA01F00F0101F1E02181F887
:10E3C000140D03E001F1E02181F80004306840F30E
:10E3D000073000F01F0102FA01F14009800000F14E
:10E3E000E020C0F8001184F82E200020A4E70000EF
:10E3F000242A002078040200F0B585B015460E46A8
:10E4000007461C46142207496846FBF747F88DF873
:10E4100001600022694638460395019400F020F817
:10E4200005B0F0BD7C0402002DE9F04186B00E4637
:10E4300080461C461546142168460C9FFBF747F89A
:10E440008DF80160039501940FB1202200E00022B5
:10E450006946404600F004F806B0BDE8F0810000CF
:10E4600030B40379054CC3EB031304EB8304134668
:10E470000A460068214630BC01F06CBB242A00200B
:10E480000149024801F028BDD429002000200040A5
:10E490002DE9F0410546007916460F4600EB400194
:10E4A0002C4A01EBC00102EB810494F82A1011B14F
:10E4B0000820BDE8F081284951F820102868FFF7AE
:10E4C000FDFE08B11120F4E739462846FCF74AF86A
:10E4D00066603869206030004FF001062DD03F7F24
:10E4E0004FF48E712868FFF781FD4FF4A271286800
:10E4F000FFF77CFD28681949C0F8041328684FEA23
:10E50000471140F30730002806DA00F00F0000F151
:10E51000E02080F8141D03E000F1E02080F80014F2
:10E52000286840F3073000F01F0106FA01F14009A6
:10E53000800000F1E020C0F8001128680421C0F834
:10E5400000150020A061E06184F8290044F8140F50
:10E55000A675AEE7D42900206804020080000200FE
:10E560002DE9F05F054600794FF4017600EB40039A
:10E5700003EBC000344B03EB80040020636813B14D
:10E580002B68C3F80863A3694FF000096BB1E06919
:10E5900038B1606810B12868C0F804631120BDE884
:10E5A000F09FE2610120216105E0C4F82490A2619E
:10E5B000E160C4F81C9094F82910014302D1284668
:10E5C00000F039FE60680028286803D0C0F80463B2
:10E5D0000020E4E74FF4A2763146FFF707FDB2468C
:10E5E0004FF4927B59462868FFF7FBFC06464FF430
:10E5F00084712868FFF7F5FC804651462868FFF7CC
:10E60000F0FC074648EA07003043EBD056EA070023
:10E6100007D12146286800F0DFFDA169606A8142C8
:10E62000E0D8C4F818900EB10320B8E70FB10F205E
:10E63000B5E794F8291001200029296801D0086065
:10E64000C6E74860C4E70000D42900202DE9F05F48
:10E65000054600790B4600EB400101EBC000244960
:10E6600001EB8004284600F045F810B11120BDE808
:10E67000F09F62614FF00009C4F82090A36084F815
:10E6800028904FF48E784E4641462868FFF7AEFC3E
:10E6900028684FF0010AC0F808A02146286801F058
:10E6A000ABFA606808BBD5F800B067690FE000BF3F
:10E6B00094F8280008B10F2615E041465846FFF7A8
:10E6C00090FC0028F4D02146584601F095FA206AC3
:10E6D000B842F2D3574641462868FFF782FC00282B
:10E6E000F9D02868C760C4F814903046BFE700002E
:10E6F000D4290020007900EB400101EBC00004495F
:10E7000001EB80004069002800D001207047000024
:10E71000D42900200149024801F08CBC002A0020C5
:10E72000002000402DE9F0410546164600790F46CD
:10E73000154A00EBC00102EB810494F8201011B1DE
:10E740000820BDE8F081114951F820102868FFF732
:10E75000B5FD08B11120F4E739462846FBF746FF1E
:10E760006660386920601EB1397F2846FDF740FE9B
:10E7700028680821C0F800150020A061E0616061F0
:10E78000012184F82010DCE7002A00206C0402003C
:10E790002DE9F05F044600790E4600EBC001DFF87A
:10E7A000F0A017460AEB81053046FFF77FFDB0B1B8
:10E7B00068684FF000084FF4047910B12168C1F87F
:10E7C0000893A8694FF0000B80B1E86948B1686808
:10E7D00010B12068C0F804931120BDE8F09F10200C
:10E7E000FBE7EF614FF001082E6102E0EE60C5E942
:10E7F000067B00254FF488712068FFF708FC4FF472
:10E80000A2712068FFF703FC2068C0F83465C0F8E7
:10E8100038752068B8F1000F12D0D0F8001241F01E
:10E820002001C0F800122079D04600EBC0010AEBAD
:10E830008100406838B12068C0F804932846CCE7CE
:10E8400001210160EFE74FF4887A4FF4A279514635
:10E850002068FFF7D7FB074649462068FFF7D2FB41
:10E8600006464FF492712068FFF7CCFB014647EA59
:10E8700006000843EBD0227902EBC20308EB8302C7
:10E88000C2F818B001B10325002ED7D00F25D5E767
:10E89000002A00202DE9F04704460E46007927495A
:10E8A00000EBC00001EB800517463046FFF7FEFC89
:10E8B00030B1204600F044F820B11120BDE8F087C7
:10E8C0001020FBE76F61AE604FF490774FF00008C7
:10E8D00039462068FFF79BFB4FF4AC763146206841
:10E8E000FFF795FB2068AA686969C0F84425C0F85D
:10E8F000481520684FF00109C0F808906868D0B941
:10E90000BA4651462068FFF77DFB0746314620682E
:10E91000FFF778FB0743F4D010B14FF00F0808E081
:10E920002068C0F80C9031462068FFF76BFB002888
:10E93000F9D0002068614046C0E70000002A0020AE
:10E940000079054900EBC00001EB80004069002818
:10E9500000D0012070470000002A00202DE9F0417E
:10E960000446007888B000287ED100211F20FEF7E1
:10E97000AFFCA08AC10701D0401EA082C0F34E00A8
:10E98000FDF738FF0646A18A3246206900F0C8F834
:10E9900045494648081AC108032000EB014544A137
:10E9A0002846FEF707FFA08A31464208A282284681
:10E9B000FEF7ACFEA08A042805D33178AA2902D13B
:10E9C00071784A0804D0284643A1FEF7F3FE5DE0C3
:10E9D0000027F9B1C01EFDF70DFFA28A8046F11C89
:10E9E000D21EFAF75BFDA08A4146C01E82B22846BD
:10E9F000FEF78CFE0097207DB178C01EC3B2424660
:10EA00004048FEF76CFA08B1FBF746FC4046FDF7BC
:10EA1000C1FB3BE00120ADF80800F1788DF814103F
:10EA200000908DF810700346B17805AA3548FEF7BE
:10EA300056FA08B1FBF730FCB178012304AA31483B
:10EA4000FEF74AFA08B1FBF727FC9DF810202EA12B
:10EA500006A8FBF7FFF828462DA1FEF7ABFE2846D7
:10EA6000BDF8082004A900E01AE0FEF74FFEBDF84B
:10EA700008004FF6FF7101EA4000ADF80800274892
:10EA800002AA06A943880C30FCF718FB3046FDF7B4
:10EA900081FB08B00121BDE8F0411F20FEF718BC42
:10EAA00008B0BDE8F0810000A40F02003C0F020096
:10EAB000526563656976656420646174612066727D
:10EAC0006F6D20424C45204E55532E2046756C6C80
:10EAD000204672616D652E005265636569766564D6
